{
  "_format": "hh-sol-artifact-1",
  "contractName": "MultiPaymentChannelsDev",
  "sourceName": "contracts/MultiPaymentChannels.sol",
  "network": {
    "links": {},
    "address": "0xcf7ed3acca5a467e9e704c703e8d87f634fb0fc9",
    "transactionHash": "0xedc691954b403c5e0a50ccbefd8abd1128ea0a09f693bb958f9caff93c25413e"
  },
  "networkId": 31337,
  "contract": "MultiPaymentChannelsDev",
  "creationBlock": 4,
  "abi": [
    {
      "inputs": [],
      "stateMutability": "nonpayable",
      "type": "constructor"
    },
    {
      "inputs": [
        {
          "internalType": "bytes32",
          "name": "channel_hash",
          "type": "bytes32"
        },
        {
          "internalType": "uint256",
          "name": "amount",
          "type": "uint256"
        },
        {
          "internalType": "bytes",
          "name": "signature",
          "type": "bytes"
        }
      ],
      "name": "addressOfChannelHashSignature",
      "outputs": [
        {
          "internalType": "address",
          "name": "",
          "type": "address"
        }
      ],
      "stateMutability": "view",
      "type": "function"
    },
    {
      "inputs": [
        {
          "internalType": "address",
          "name": "",
          "type": "address"
        }
      ],
      "name": "balance",
      "outputs": [
        {
          "internalType": "uint256",
          "name": "",
          "type": "uint256"
        }
      ],
      "stateMutability": "view",
      "type": "function"
    },
    {
      "inputs": [
        {
          "internalType": "bytes32",
          "name": "channel_hash",
          "type": "bytes32"
        },
        {
          "internalType": "uint256",
          "name": "amount",
          "type": "uint256"
        },
        {
          "internalType": "bytes",
          "name": "signature",
          "type": "bytes"
        }
      ],
      "name": "claimChannelHashSignature",
      "outputs": [
        {
          "internalType": "bool",
          "name": "",
          "type": "bool"
        }
      ],
      "stateMutability": "nonpayable",
      "type": "function"
    },
    {
      "inputs": [
        {
          "internalType": "bytes32",
          "name": "hash",
          "type": "bytes32"
        }
      ],
      "name": "createPaymentChannel",
      "outputs": [
        {
          "internalType": "bytes",
          "name": "",
          "type": "bytes"
        }
      ],
      "stateMutability": "payable",
      "type": "function"
    },
    {
      "inputs": [],
      "name": "creditSenderBalance",
      "outputs": [],
      "stateMutability": "payable",
      "type": "function"
    },
    {
      "inputs": [],
      "name": "expiration",
      "outputs": [
        {
          "internalType": "uint256",
          "name": "",
          "type": "uint256"
        }
      ],
      "stateMutability": "view",
      "type": "function"
    },
    {
      "inputs": [],
      "name": "nonce",
      "outputs": [
        {
          "internalType": "uint256",
          "name": "",
          "type": "uint256"
        }
      ],
      "stateMutability": "view",
      "type": "function"
    },
    {
      "inputs": [],
      "name": "recipient",
      "outputs": [
        {
          "internalType": "address payable",
          "name": "",
          "type": "address"
        }
      ],
      "stateMutability": "view",
      "type": "function"
    },
    {
      "inputs": [],
      "name": "sender",
      "outputs": [
        {
          "internalType": "address payable",
          "name": "",
          "type": "address"
        }
      ],
      "stateMutability": "view",
      "type": "function"
    },
    {
      "inputs": [],
      "name": "withdrawBalance",
      "outputs": [],
      "stateMutability": "payable",
      "type": "function"
    }
  ],
  "bytecode": "0x6080604052600060035534801561001557600080fd5b50611781806100256000396000f3fe6080604052600436106100915760003560e01c806367e404ce1161005957806367e404ce14610130578063aa3a39821461015b578063affed0e014610198578063e3d670d7146101c3578063f5fb46be1461020057610091565b80631b8f363f146100965780631f871823146100a05780634665096d146100d05780635fd8c710146100fb57806366d003ac14610105575b600080fd5b61009e61023d565b005b6100ba60048036038101906100b59190610ce4565b610295565b6040516100c79190610da1565b60405180910390f35b3480156100dc57600080fd5b506100e561039b565b6040516100f29190610ddc565b60405180910390f35b6101036103a1565b005b34801561011157600080fd5b5061011a61059f565b6040516101279190610e38565b60405180910390f35b34801561013c57600080fd5b506101456105c5565b6040516101529190610e38565b60405180910390f35b34801561016757600080fd5b50610182600480360381019061017d9190610fb4565b6105e9565b60405161018f9190611044565b60405180910390f35b3480156101a457600080fd5b506101ad61063e565b6040516101ba9190610ddc565b60405180910390f35b3480156101cf57600080fd5b506101ea60048036038101906101e5919061108b565b610644565b6040516101f79190610ddc565b60405180910390f35b34801561020c57600080fd5b5061022760048036038101906102229190610fb4565b61065c565b60405161023491906110d3565b60405180910390f35b34600560003373ffffffffffffffffffffffffffffffffffffffff1673ffffffffffffffffffffffffffffffffffffffff168152602001908152602001600020600082825461028c919061111d565b92505081905550565b60606006600083815260200190815260200160002060009054906101000a900460ff16156102c257600080fd5b60016006600084815260200190815260200160002060006101000a81548160ff021916908315150217905550336007600084815260200190815260200160002060006101000a81548173ffffffffffffffffffffffffffffffffffffffff021916908373ffffffffffffffffffffffffffffffffffffffff16021790555034600560003373ffffffffffffffffffffffffffffffffffffffff1673ffffffffffffffffffffffffffffffffffffffff168152602001908152602001600020600082825461038f919061111d565b92505081905550919050565b60025481565b6000600560003373ffffffffffffffffffffffffffffffffffffffff1673ffffffffffffffffffffffffffffffffffffffff16815260200190815260200160002054905080600560003373ffffffffffffffffffffffffffffffffffffffff1673ffffffffffffffffffffffffffffffffffffffff168152602001908152602001600020541015610467576040517f08c379a000000000000000000000000000000000000000000000000000000000815260040161045e906111d4565b60405180910390fd5b804710156104aa576040517f08c379a00000000000000000000000000000000000000000000000000000000081526004016104a190611266565b60405180910390fd5b6000600560003373ffffffffffffffffffffffffffffffffffffffff1673ffffffffffffffffffffffffffffffffffffffff1681526020019081526020016000208190555060003373ffffffffffffffffffffffffffffffffffffffff1682604051610515906112b7565b60006040518083038185875af1925050503d8060008114610552576040519150601f19603f3d011682016040523d82523d6000602084013e610557565b606091505b505090508061059b576040517f08c379a000000000000000000000000000000000000000000000000000000000815260040161059290611318565b60405180910390fd5b5050565b600160009054906101000a900473ffffffffffffffffffffffffffffffffffffffff1681565b60008054906101000a900473ffffffffffffffffffffffffffffffffffffffff1681565b600080308486604051602001610601939291906113c2565b60405160208183030381529060405280519060200120905061063483610626836107d5565b61080590919063ffffffff16565b9150509392505050565b60035481565b60056020528060005260406000206000915090505481565b600061066984848461082c565b61067257600080fd5b8247101561067f57600080fd5b82600560006007600088815260200190815260200160002060009054906101000a900473ffffffffffffffffffffffffffffffffffffffff1673ffffffffffffffffffffffffffffffffffffffff1673ffffffffffffffffffffffffffffffffffffffff1681526020019081526020016000205410156106fe57600080fd5b82600560006007600088815260200190815260200160002060009054906101000a900473ffffffffffffffffffffffffffffffffffffffff1673ffffffffffffffffffffffffffffffffffffffff1673ffffffffffffffffffffffffffffffffffffffff168152602001908152602001600020600082825461078091906113ff565b925050819055503373ffffffffffffffffffffffffffffffffffffffff166108fc849081150290604051600060405180830381858888f193505050501580156107cd573d6000803e3d6000fd5b509392505050565b6000816040516020016107e8919061148a565b604051602081830303815290604052805190602001209050919050565b600080600061081485856108e2565b9150915061082181610963565b819250505092915050565b600080308486604051602001610844939291906113c2565b6040516020818303038152906040528051906020012090506007600086815260200190815260200160002060009054906101000a900473ffffffffffffffffffffffffffffffffffffffff1673ffffffffffffffffffffffffffffffffffffffff166108c1846108b3846107d5565b61080590919063ffffffff16565b73ffffffffffffffffffffffffffffffffffffffff16149150509392505050565b60008060418351036109235760008060006020860151925060408601519150606086015160001a905061091787828585610b2f565b9450945050505061095c565b6040835103610953576000806020850151915060408501519050610948868383610c3b565b93509350505061095c565b60006002915091505b9250929050565b60006004811115610977576109766114b0565b5b81600481111561098a576109896114b0565b5b0315610b2c57600160048111156109a4576109a36114b0565b5b8160048111156109b7576109b66114b0565b5b036109f7576040517f08c379a00000000000000000000000000000000000000000000000000000000081526004016109ee9061152b565b60405180910390fd5b60026004811115610a0b57610a0a6114b0565b5b816004811115610a1e57610a1d6114b0565b5b03610a5e576040517f08c379a0000000000000000000000000000000000000000000000000000000008152600401610a5590611597565b60405180910390fd5b60036004811115610a7257610a716114b0565b5b816004811115610a8557610a846114b0565b5b03610ac5576040517f08c379a0000000000000000000000000000000000000000000000000000000008152600401610abc90611629565b60405180910390fd5b600480811115610ad857610ad76114b0565b5b816004811115610aeb57610aea6114b0565b5b03610b2b576040517f08c379a0000000000000000000000000000000000000000000000000000000008152600401610b22906116bb565b60405180910390fd5b5b50565b6000807f7fffffffffffffffffffffffffffffff5d576e7357a4501ddfe92f46681b20a08360001c1115610b6a576000600391509150610c32565b601b8560ff1614158015610b825750601c8560ff1614155b15610b94576000600491509150610c32565b600060018787878760405160008152602001604052604051610bb99493929190611706565b6020604051602081039080840390855afa158015610bdb573d6000803e3d6000fd5b505050602060405103519050600073ffffffffffffffffffffffffffffffffffffffff168173ffffffffffffffffffffffffffffffffffffffff1603610c2957600060019250925050610c32565b80600092509250505b94509492505050565b60008060007f7fffffffffffffffffffffffffffffffffffffffffffffffffffffffffffffff60001b841690506000601b60ff8660001c901c610c7e919061111d565b9050610c8c87828885610b2f565b935093505050935093915050565b6000604051905090565b600080fd5b600080fd5b6000819050919050565b610cc181610cae565b8114610ccc57600080fd5b50565b600081359050610cde81610cb8565b92915050565b600060208284031215610cfa57610cf9610ca4565b5b6000610d0884828501610ccf565b91505092915050565b600081519050919050565b600082825260208201905092915050565b60005b83811015610d4b578082015181840152602081019050610d30565b60008484015250505050565b6000601f19601f8301169050919050565b6000610d7382610d11565b610d7d8185610d1c565b9350610d8d818560208601610d2d565b610d9681610d57565b840191505092915050565b60006020820190508181036000830152610dbb8184610d68565b905092915050565b6000819050919050565b610dd681610dc3565b82525050565b6000602082019050610df16000830184610dcd565b92915050565b600073ffffffffffffffffffffffffffffffffffffffff82169050919050565b6000610e2282610df7565b9050919050565b610e3281610e17565b82525050565b6000602082019050610e4d6000830184610e29565b92915050565b610e5c81610dc3565b8114610e6757600080fd5b50565b600081359050610e7981610e53565b92915050565b600080fd5b600080fd5b7f4e487b7100000000000000000000000000000000000000000000000000000000600052604160045260246000fd5b610ec182610d57565b810181811067ffffffffffffffff82111715610ee057610edf610e89565b5b80604052505050565b6000610ef3610c9a565b9050610eff8282610eb8565b919050565b600067ffffffffffffffff821115610f1f57610f1e610e89565b5b610f2882610d57565b9050602081019050919050565b82818337600083830152505050565b6000610f57610f5284610f04565b610ee9565b905082815260208101848484011115610f7357610f72610e84565b5b610f7e848285610f35565b509392505050565b600082601f830112610f9b57610f9a610e7f565b5b8135610fab848260208601610f44565b91505092915050565b600080600060608486031215610fcd57610fcc610ca4565b5b6000610fdb86828701610ccf565b9350506020610fec86828701610e6a565b925050604084013567ffffffffffffffff81111561100d5761100c610ca9565b5b61101986828701610f86565b9150509250925092565b600061102e82610df7565b9050919050565b61103e81611023565b82525050565b60006020820190506110596000830184611035565b92915050565b61106881611023565b811461107357600080fd5b50565b6000813590506110858161105f565b92915050565b6000602082840312156110a1576110a0610ca4565b5b60006110af84828501611076565b91505092915050565b60008115159050919050565b6110cd816110b8565b82525050565b60006020820190506110e860008301846110c4565b92915050565b7f4e487b7100000000000000000000000000000000000000000000000000000000600052601160045260246000fd5b600061112882610dc3565b915061113383610dc3565b925082820190508082111561114b5761114a6110ee565b5b92915050565b600082825260208201905092915050565b7f616d6f756e742067726561746572207468616e20636f6e74726163742062616c60008201527f616e63655b6d73672e73656e6465725d00000000000000000000000000000000602082015250565b60006111be603083611151565b91506111c982611162565b604082019050919050565b600060208201905081810360008301526111ed816111b1565b9050919050565b7f62616c616e63652067726561746572207468616e20636f6e747261637420626160008201527f6c616e6365000000000000000000000000000000000000000000000000000000602082015250565b6000611250602583611151565b915061125b826111f4565b604082019050919050565b6000602082019050818103600083015261127f81611243565b9050919050565b600081905092915050565b50565b60006112a1600083611286565b91506112ac82611291565b600082019050919050565b60006112c282611294565b9150819050919050565b7f4661696c656420746f2073656e64204574686572000000000000000000000000600082015250565b6000611302601483611151565b915061130d826112cc565b602082019050919050565b60006020820190508181036000830152611331816112f5565b9050919050565b60008160601b9050919050565b600061135082611338565b9050919050565b600061136282611345565b9050919050565b61137a61137582611023565b611357565b82525050565b6000819050919050565b61139b61139682610dc3565b611380565b82525050565b6000819050919050565b6113bc6113b782610cae565b6113a1565b82525050565b60006113ce8286611369565b6014820191506113de828561138a565b6020820191506113ee82846113ab565b602082019150819050949350505050565b600061140a82610dc3565b915061141583610dc3565b925082820390508181111561142d5761142c6110ee565b5b92915050565b600081905092915050565b7f19457468657265756d205369676e6564204d6573736167653a0a333200000000600082015250565b6000611474601c83611433565b915061147f8261143e565b601c82019050919050565b600061149582611467565b91506114a182846113ab565b60208201915081905092915050565b7f4e487b7100000000000000000000000000000000000000000000000000000000600052602160045260246000fd5b7f45434453413a20696e76616c6964207369676e61747572650000000000000000600082015250565b6000611515601883611151565b9150611520826114df565b602082019050919050565b6000602082019050818103600083015261154481611508565b9050919050565b7f45434453413a20696e76616c6964207369676e6174757265206c656e67746800600082015250565b6000611581601f83611151565b915061158c8261154b565b602082019050919050565b600060208201905081810360008301526115b081611574565b9050919050565b7f45434453413a20696e76616c6964207369676e6174757265202773272076616c60008201527f7565000000000000000000000000000000000000000000000000000000000000602082015250565b6000611613602283611151565b915061161e826115b7565b604082019050919050565b6000602082019050818103600083015261164281611606565b9050919050565b7f45434453413a20696e76616c6964207369676e6174757265202776272076616c60008201527f7565000000000000000000000000000000000000000000000000000000000000602082015250565b60006116a5602283611151565b91506116b082611649565b604082019050919050565b600060208201905081810360008301526116d481611698565b9050919050565b6116e481610cae565b82525050565b600060ff82169050919050565b611700816116ea565b82525050565b600060808201905061171b60008301876116db565b61172860208301866116f7565b61173560408301856116db565b61174260608301846116db565b9594505050505056fea2646970667358221220624fb05e465ac451c929f2e8eedb5c3c31f9ff71d1ac9b918a885ffe9b34208a64736f6c63430008180033",
  "linkReferences": {},
  "deployedLinkReferences": {}
}