{
  "_format": "hh-sol-artifact-1",
  "contractName": "Vote",
  "network": {
    "links": {},
    "address": "0x6db759ef225de43ca670852f453d25abf3105a02",
    "transactionHash": "0x5b3aa5996fdf5151bf5abde6a005c38975d73045dd56493babc593233a7dc94f",
    "address1": "0xa513E6E4b8f2a923D98304ec87F64353C4D5C853",
    "transactionHash1": "0x569498ef148dac7650d0740d8cb83e2a42c47e4cd1173715cf80f008eb829482"
  },
  "networkId": 31337,
  "contract": "Vote",
  "creationBlock": 8,
  "sourceName": "contracts/Vote.sol",
  "abi": [
    {
      "inputs": [
        {
          "internalType": "address",
          "name": "_semaphoreAddress",
          "type": "address"
        },
        {
          "internalType": "uint256",
          "name": "_groupId",
          "type": "uint256"
        }
      ],
      "stateMutability": "nonpayable",
      "type": "constructor"
    },
    {
      "anonymous": false,
      "inputs": [
        {
          "indexed": false,
          "internalType": "bytes",
          "name": "question",
          "type": "bytes"
        },
        {
          "indexed": false,
          "internalType": "bytes[]",
          "name": "responses",
          "type": "bytes[]"
        },
        {
          "indexed": false,
          "internalType": "address",
          "name": "owner",
          "type": "address"
        },
        {
          "indexed": false,
          "internalType": "uint256",
          "name": "groupId",
          "type": "uint256"
        }
      ],
      "name": "Ballot",
      "type": "event"
    },
    {
      "anonymous": false,
      "inputs": [
        {
          "indexed": false,
          "internalType": "uint256",
          "name": "nullifier",
          "type": "uint256"
        }
      ],
      "name": "Log",
      "type": "event"
    },
    {
      "anonymous": false,
      "inputs": [
        {
          "indexed": false,
          "internalType": "uint256",
          "name": "group",
          "type": "uint256"
        },
        {
          "indexed": false,
          "internalType": "address",
          "name": "admin",
          "type": "address"
        }
      ],
      "name": "Log",
      "type": "event"
    },
    {
      "anonymous": false,
      "inputs": [
        {
          "indexed": false,
          "internalType": "uint256",
          "name": "vote",
          "type": "uint256"
        }
      ],
      "name": "Voted",
      "type": "event"
    },
    {
      "inputs": [
        {
          "internalType": "uint256",
          "name": "merkleTreeDepth",
          "type": "uint256"
        },
        {
          "internalType": "uint256",
          "name": "merkleTreeRoot",
          "type": "uint256"
        },
        {
          "internalType": "uint256",
          "name": "nullifier",
          "type": "uint256"
        },
        {
          "internalType": "uint256",
          "name": "vote",
          "type": "uint256"
        },
        {
          "internalType": "uint256[8]",
          "name": "points",
          "type": "uint256[8]"
        }
      ],
      "name": "castVote",
      "outputs": [],
      "stateMutability": "nonpayable",
      "type": "function"
    },
    {
      "inputs": [
        {
          "internalType": "bytes",
          "name": "question",
          "type": "bytes"
        },
        {
          "internalType": "bytes[]",
          "name": "responses",
          "type": "bytes[]"
        }
      ],
      "name": "createBallot",
      "outputs": [],
      "stateMutability": "nonpayable",
      "type": "function"
    },
    {
      "inputs": [],
      "name": "groupId",
      "outputs": [
        {
          "internalType": "uint256",
          "name": "",
          "type": "uint256"
        }
      ],
      "stateMutability": "view",
      "type": "function"
    },
    {
      "inputs": [
        {
          "internalType": "string",
          "name": "ballot",
          "type": "string"
        },
        {
          "internalType": "string",
          "name": "vote",
          "type": "string"
        }
      ],
      "name": "hashVote",
      "outputs": [
        {
          "internalType": "bytes32",
          "name": "hash",
          "type": "bytes32"
        }
      ],
      "stateMutability": "pure",
      "type": "function"
    },
    {
      "inputs": [
        {
          "internalType": "uint256",
          "name": "identityCommitment",
          "type": "uint256"
        }
      ],
      "name": "joinGroup",
      "outputs": [],
      "stateMutability": "nonpayable",
      "type": "function"
    },
    {
      "inputs": [],
      "name": "owner",
      "outputs": [
        {
          "internalType": "address",
          "name": "",
          "type": "address"
        }
      ],
      "stateMutability": "view",
      "type": "function"
    },
    {
      "inputs": [],
      "name": "semaphore",
      "outputs": [
        {
          "internalType": "contract ISemaphore",
          "name": "",
          "type": "address"
        }
      ],
      "stateMutability": "view",
      "type": "function"
    }
  ],
  "bytecode": "0x60806040523480156200001157600080fd5b50604051620011fa380380620011fa8339818101604052810190620000379190620001ff565b816000806101000a81548173ffffffffffffffffffffffffffffffffffffffff021916908373ffffffffffffffffffffffffffffffffffffffff1602179055508060018190555033600260006101000a81548173ffffffffffffffffffffffffffffffffffffffff021916908373ffffffffffffffffffffffffffffffffffffffff16021790555060008054906101000a900473ffffffffffffffffffffffffffffffffffffffff1673ffffffffffffffffffffffffffffffffffffffff1663c96e71fb600154306040518363ffffffff1660e01b81526004016200011e92919062000268565b600060405180830381600087803b1580156200013957600080fd5b505af11580156200014e573d6000803e3d6000fd5b50505050505062000295565b600080fd5b600073ffffffffffffffffffffffffffffffffffffffff82169050919050565b60006200018c826200015f565b9050919050565b6200019e816200017f565b8114620001aa57600080fd5b50565b600081519050620001be8162000193565b92915050565b6000819050919050565b620001d981620001c4565b8114620001e557600080fd5b50565b600081519050620001f981620001ce565b92915050565b600080604083850312156200021957620002186200015a565b5b60006200022985828601620001ad565b92505060206200023c85828601620001e8565b9150509250929050565b6200025181620001c4565b82525050565b62000262816200017f565b82525050565b60006040820190506200027f600083018562000246565b6200028e602083018462000257565b9392505050565b610f5580620002a56000396000f3fe608060405234801561001057600080fd5b506004361061007d5760003560e01c80638da5cb5b1161005b5780638da5cb5b146100ec578063a0f44c921461010a578063e4a2257914610128578063eed02e4b146101445761007d565b8063105c63ea146100825780636d525ad11461009e5780637b5d2534146100ce575b600080fd5b61009c6004803603810190610097919061054a565b610160565b005b6100b860048036038101906100b3919061070c565b6102cf565b6040516100c5919061079d565b60405180910390f35b6100d6610302565b6040516100e39190610837565b60405180910390f35b6100f4610326565b6040516101019190610873565b60405180910390f35b61011261034c565b60405161011f919061089d565b60405180910390f35b610142600480360381019061013d9190610a3a565b610352565b005b61015e60048036038101906101599190610ab2565b610447565b005b60006040518060c001604052808781526020018681526020018581526020018481526020016001548152602001836008806020026040519081016040528092919082600860200280828437600081840152601f19601f82011690508083019250505050505081525090507f909c57d5c6ac08245cf2a6de3900e2b868513fa59099b92b27d8db823d92df9c846040516101f9919061089d565b60405180910390a160008054906101000a900473ffffffffffffffffffffffffffffffffffffffff1673ffffffffffffffffffffffffffffffffffffffff1663d0d898dd600154836040518363ffffffff1660e01b815260040161025e929190610c06565b600060405180830381600087803b15801561027857600080fd5b505af115801561028c573d6000803e3d6000fd5b505050507f7f511e347bf51eed3be100b3194247d5207f05f3b33de7d31e3e8ee73199a049836040516102bf919061089d565b60405180910390a1505050505050565b600082826040516020016102e4929190610ca1565b60405160208183030381529060405280519060200120905092915050565b60008054906101000a900473ffffffffffffffffffffffffffffffffffffffff1681565b600260009054906101000a900473ffffffffffffffffffffffffffffffffffffffff1681565b60015481565b3373ffffffffffffffffffffffffffffffffffffffff16600260009054906101000a900473ffffffffffffffffffffffffffffffffffffffff1673ffffffffffffffffffffffffffffffffffffffff16146103e2576040517f08c379a00000000000000000000000000000000000000000000000000000000081526004016103d990610d22565b60405180910390fd5b7fec9bbd7935eacb570ca2144257cce1bad5a009282b26d3de8a4807c69ccc8bab8282600260009054906101000a900473ffffffffffffffffffffffffffffffffffffffff1660015460405161043b9493929190610ea3565b60405180910390a15050565b60008054906101000a900473ffffffffffffffffffffffffffffffffffffffff1673ffffffffffffffffffffffffffffffffffffffff16631783efc3600154836040518363ffffffff1660e01b81526004016104a4929190610ef6565b600060405180830381600087803b1580156104be57600080fd5b505af11580156104d2573d6000803e3d6000fd5b5050505050565b6000604051905090565b600080fd5b600080fd5b6000819050919050565b610500816104ed565b811461050b57600080fd5b50565b60008135905061051d816104f7565b92915050565b600080fd5b60008190508260206008028201111561054457610543610523565b5b92915050565b60008060008060006101808688031215610567576105666104e3565b5b60006105758882890161050e565b95505060206105868882890161050e565b94505060406105978882890161050e565b93505060606105a88882890161050e565b92505060806105b988828901610528565b9150509295509295909350565b600080fd5b600080fd5b6000601f19601f8301169050919050565b7f4e487b7100000000000000000000000000000000000000000000000000000000600052604160045260246000fd5b610619826105d0565b810181811067ffffffffffffffff82111715610638576106376105e1565b5b80604052505050565b600061064b6104d9565b90506106578282610610565b919050565b600067ffffffffffffffff821115610677576106766105e1565b5b610680826105d0565b9050602081019050919050565b82818337600083830152505050565b60006106af6106aa8461065c565b610641565b9050828152602081018484840111156106cb576106ca6105cb565b5b6106d684828561068d565b509392505050565b600082601f8301126106f3576106f26105c6565b5b813561070384826020860161069c565b91505092915050565b60008060408385031215610723576107226104e3565b5b600083013567ffffffffffffffff811115610741576107406104e8565b5b61074d858286016106de565b925050602083013567ffffffffffffffff81111561076e5761076d6104e8565b5b61077a858286016106de565b9150509250929050565b6000819050919050565b61079781610784565b82525050565b60006020820190506107b2600083018461078e565b92915050565b600073ffffffffffffffffffffffffffffffffffffffff82169050919050565b6000819050919050565b60006107fd6107f86107f3846107b8565b6107d8565b6107b8565b9050919050565b600061080f826107e2565b9050919050565b600061082182610804565b9050919050565b61083181610816565b82525050565b600060208201905061084c6000830184610828565b92915050565b600061085d826107b8565b9050919050565b61086d81610852565b82525050565b60006020820190506108886000830184610864565b92915050565b610897816104ed565b82525050565b60006020820190506108b2600083018461088e565b92915050565b600067ffffffffffffffff8211156108d3576108d26105e1565b5b6108dc826105d0565b9050602081019050919050565b60006108fc6108f7846108b8565b610641565b905082815260208101848484011115610918576109176105cb565b5b61092384828561068d565b509392505050565b600082601f8301126109405761093f6105c6565b5b81356109508482602086016108e9565b91505092915050565b600067ffffffffffffffff821115610974576109736105e1565b5b602082029050602081019050919050565b600061099861099384610959565b610641565b905080838252602082019050602084028301858111156109bb576109ba610523565b5b835b81811015610a0257803567ffffffffffffffff8111156109e0576109df6105c6565b5b8086016109ed898261092b565b855260208501945050506020810190506109bd565b5050509392505050565b600082601f830112610a2157610a206105c6565b5b8135610a31848260208601610985565b91505092915050565b60008060408385031215610a5157610a506104e3565b5b600083013567ffffffffffffffff811115610a6f57610a6e6104e8565b5b610a7b8582860161092b565b925050602083013567ffffffffffffffff811115610a9c57610a9b6104e8565b5b610aa885828601610a0c565b9150509250929050565b600060208284031215610ac857610ac76104e3565b5b6000610ad68482850161050e565b91505092915050565b610ae8816104ed565b82525050565b600060089050919050565b600081905092915050565b6000819050919050565b6000610b1a8383610adf565b60208301905092915050565b6000602082019050919050565b610b3c81610aee565b610b468184610af9565b9250610b5182610b04565b8060005b83811015610b82578151610b698782610b0e565b9650610b7483610b26565b925050600181019050610b55565b505050505050565b6101a082016000820151610ba16000850182610adf565b506020820151610bb46020850182610adf565b506040820151610bc76040850182610adf565b506060820151610bda6060850182610adf565b506080820151610bed6080850182610adf565b5060a0820151610c0060a0850182610b33565b50505050565b60006101c082019050610c1c600083018561088e565b610c296020830184610b8a565b9392505050565b600081519050919050565b600081905092915050565b60005b83811015610c64578082015181840152602081019050610c49565b60008484015250505050565b6000610c7b82610c30565b610c858185610c3b565b9350610c95818560208601610c46565b80840191505092915050565b6000610cad8285610c70565b9150610cb98284610c70565b91508190509392505050565b600082825260208201905092915050565b7f6e6f7420766f7465206f776e6572000000000000000000000000000000000000600082015250565b6000610d0c600e83610cc5565b9150610d1782610cd6565b602082019050919050565b60006020820190508181036000830152610d3b81610cff565b9050919050565b600081519050919050565b600082825260208201905092915050565b6000610d6982610d42565b610d738185610d4d565b9350610d83818560208601610c46565b610d8c816105d0565b840191505092915050565b600081519050919050565b600082825260208201905092915050565b6000819050602082019050919050565b600082825260208201905092915050565b6000610ddf82610d42565b610de98185610dc3565b9350610df9818560208601610c46565b610e02816105d0565b840191505092915050565b6000610e198383610dd4565b905092915050565b6000602082019050919050565b6000610e3982610d97565b610e438185610da2565b935083602082028501610e5585610db3565b8060005b85811015610e915784840389528151610e728582610e0d565b9450610e7d83610e21565b925060208a01995050600181019050610e59565b50829750879550505050505092915050565b60006080820190508181036000830152610ebd8187610d5e565b90508181036020830152610ed18186610e2e565b9050610ee06040830185610864565b610eed606083018461088e565b95945050505050565b6000604082019050610f0b600083018561088e565b610f18602083018461088e565b939250505056fea2646970667358221220e6f169dbb9bfacaf5fae081051dbb35539ffe1b7ddabbda92e31fed8bbaac50c64736f6c63430008170033",
  "linkReferences": {},
  "deployedLinkReferences": {}
}